{
  "_format": "hh-sol-artifact-1",
  "contractName": "MindMintNft",
  "sourceName": "contracts/MindMintNft.sol",
  "abi": [
    {
      "inputs": [
        {
          "internalType": "address",
          "name": "erc20TokenAddress",
          "type": "address"
        },
        {
          "internalType": "string",
          "name": "baseUrl",
          "type": "string"
        }
      ],
      "stateMutability": "nonpayable",
      "type": "constructor"
    },
    {
      "anonymous": false,
      "inputs": [
        {
          "indexed": true,
          "internalType": "address",
          "name": "owner",
          "type": "address"
        },
        {
          "indexed": true,
          "internalType": "address",
          "name": "approved",
          "type": "address"
        },
        {
          "indexed": true,
          "internalType": "uint256",
          "name": "tokenId",
          "type": "uint256"
        }
      ],
      "name": "Approval",
      "type": "event"
    },
    {
      "anonymous": false,
      "inputs": [
        {
          "indexed": true,
          "internalType": "address",
          "name": "owner",
          "type": "address"
        },
        {
          "indexed": true,
          "internalType": "address",
          "name": "operator",
          "type": "address"
        },
        {
          "indexed": false,
          "internalType": "bool",
          "name": "approved",
          "type": "bool"
        }
      ],
      "name": "ApprovalForAll",
      "type": "event"
    },
    {
      "anonymous": false,
      "inputs": [
        {
          "indexed": true,
          "internalType": "address",
          "name": "owner",
          "type": "address"
        },
        {
          "indexed": false,
          "internalType": "uint256",
          "name": "tokenId",
          "type": "uint256"
        }
      ],
      "name": "NFTDeposited",
      "type": "event"
    },
    {
      "anonymous": false,
      "inputs": [
        {
          "indexed": true,
          "internalType": "address",
          "name": "from",
          "type": "address"
        },
        {
          "indexed": true,
          "internalType": "address",
          "name": "to",
          "type": "address"
        },
        {
          "indexed": true,
          "internalType": "uint256",
          "name": "tokenId",
          "type": "uint256"
        }
      ],
      "name": "Transfer",
      "type": "event"
    },
    {
      "inputs": [],
      "name": "CATEGORY_COUNT",
      "outputs": [
        {
          "internalType": "uint256",
          "name": "",
          "type": "uint256"
        }
      ],
      "stateMutability": "view",
      "type": "function"
    },
    {
      "inputs": [],
      "name": "MAX_PER_CATEGORY",
      "outputs": [
        {
          "internalType": "uint256",
          "name": "",
          "type": "uint256"
        }
      ],
      "stateMutability": "view",
      "type": "function"
    },
    {
      "inputs": [],
      "name": "MAX_SUPPLY",
      "outputs": [
        {
          "internalType": "uint256",
          "name": "",
          "type": "uint256"
        }
      ],
      "stateMutability": "view",
      "type": "function"
    },
    {
      "inputs": [
        {
          "internalType": "address",
          "name": "to",
          "type": "address"
        },
        {
          "internalType": "uint256",
          "name": "tokenId",
          "type": "uint256"
        }
      ],
      "name": "approve",
      "outputs": [],
      "stateMutability": "nonpayable",
      "type": "function"
    },
    {
      "inputs": [
        {
          "internalType": "address",
          "name": "owner",
          "type": "address"
        }
      ],
      "name": "balanceOf",
      "outputs": [
        {
          "internalType": "uint256",
          "name": "",
          "type": "uint256"
        }
      ],
      "stateMutability": "view",
      "type": "function"
    },
    {
      "inputs": [
        {
          "internalType": "uint256",
          "name": "etherAmount",
          "type": "uint256"
        }
      ],
      "name": "convertEtherToWei",
      "outputs": [
        {
          "internalType": "uint256",
          "name": "",
          "type": "uint256"
        }
      ],
      "stateMutability": "pure",
      "type": "function"
    },
    {
      "inputs": [
        {
          "internalType": "uint256",
          "name": "tokenId",
          "type": "uint256"
        }
      ],
      "name": "depositNFT",
      "outputs": [],
      "stateMutability": "payable",
      "type": "function"
    },
    {
      "inputs": [
        {
          "internalType": "uint256",
          "name": "tokenId",
          "type": "uint256"
        }
      ],
      "name": "getApproved",
      "outputs": [
        {
          "internalType": "address",
          "name": "",
          "type": "address"
        }
      ],
      "stateMutability": "view",
      "type": "function"
    },
    {
      "inputs": [],
      "name": "getBaseUrl",
      "outputs": [
        {
          "internalType": "string",
          "name": "",
          "type": "string"
        }
      ],
      "stateMutability": "view",
      "type": "function"
    },
    {
      "inputs": [
        {
          "internalType": "uint256",
          "name": "category",
          "type": "uint256"
        }
      ],
      "name": "getCategoryMaxCount",
      "outputs": [
        {
          "internalType": "uint256",
          "name": "",
          "type": "uint256"
        }
      ],
      "stateMutability": "view",
      "type": "function"
    },
    {
      "inputs": [
        {
          "internalType": "uint256",
          "name": "category",
          "type": "uint256"
        }
      ],
      "name": "getCategoryPrice",
      "outputs": [
        {
          "internalType": "uint256",
          "name": "",
          "type": "uint256"
        }
      ],
      "stateMutability": "view",
      "type": "function"
    },
    {
      "inputs": [
        {
          "internalType": "uint256",
          "name": "index",
          "type": "uint256"
        }
      ],
      "name": "getFeeRecipient",
      "outputs": [
        {
          "internalType": "address",
          "name": "",
          "type": "address"
        },
        {
          "internalType": "uint256",
          "name": "",
          "type": "uint256"
        }
      ],
      "stateMutability": "view",
      "type": "function"
    },
    {
      "inputs": [],
      "name": "getManager",
      "outputs": [
        {
          "internalType": "address",
          "name": "",
          "type": "address"
        }
      ],
      "stateMutability": "view",
      "type": "function"
    },
    {
      "inputs": [
        {
          "internalType": "uint256",
          "name": "tokenId",
          "type": "uint256"
        }
      ],
      "name": "getTokenMetadata",
      "outputs": [
        {
          "internalType": "string",
          "name": "",
          "type": "string"
        }
      ],
      "stateMutability": "view",
      "type": "function"
    },
    {
      "inputs": [
        {
          "internalType": "address",
          "name": "owner",
          "type": "address"
        },
        {
          "internalType": "address",
          "name": "operator",
          "type": "address"
        }
      ],
      "name": "isApprovedForAll",
      "outputs": [
        {
          "internalType": "bool",
          "name": "",
          "type": "bool"
        }
      ],
      "stateMutability": "view",
      "type": "function"
    },
    {
      "inputs": [
        {
          "internalType": "uint256",
          "name": "category",
          "type": "uint256"
        },
        {
          "internalType": "uint256",
          "name": "tokenId",
          "type": "uint256"
        }
      ],
      "name": "mint",
      "outputs": [],
      "stateMutability": "nonpayable",
      "type": "function"
    },
    {
      "inputs": [],
      "name": "name",
      "outputs": [
        {
          "internalType": "string",
          "name": "",
          "type": "string"
        }
      ],
      "stateMutability": "view",
      "type": "function"
    },
    {
      "inputs": [
        {
          "internalType": "address",
          "name": "operator",
          "type": "address"
        },
        {
          "internalType": "address",
          "name": "from",
          "type": "address"
        },
        {
          "internalType": "uint256",
          "name": "tokenId",
          "type": "uint256"
        },
        {
          "internalType": "bytes",
          "name": "data",
          "type": "bytes"
        }
      ],
      "name": "onERC721Received",
      "outputs": [
        {
          "internalType": "bytes4",
          "name": "",
          "type": "bytes4"
        }
      ],
      "stateMutability": "nonpayable",
      "type": "function"
    },
    {
      "inputs": [
        {
          "internalType": "uint256",
          "name": "tokenId",
          "type": "uint256"
        }
      ],
      "name": "ownerOf",
      "outputs": [
        {
          "internalType": "address",
          "name": "",
          "type": "address"
        }
      ],
      "stateMutability": "view",
      "type": "function"
    },
    {
      "inputs": [
        {
          "internalType": "address",
          "name": "from",
          "type": "address"
        },
        {
          "internalType": "address",
          "name": "to",
          "type": "address"
        },
        {
          "internalType": "uint256",
          "name": "tokenId",
          "type": "uint256"
        }
      ],
      "name": "safeTransferFrom",
      "outputs": [],
      "stateMutability": "nonpayable",
      "type": "function"
    },
    {
      "inputs": [
        {
          "internalType": "address",
          "name": "from",
          "type": "address"
        },
        {
          "internalType": "address",
          "name": "to",
          "type": "address"
        },
        {
          "internalType": "uint256",
          "name": "tokenId",
          "type": "uint256"
        },
        {
          "internalType": "bytes",
          "name": "data",
          "type": "bytes"
        }
      ],
      "name": "safeTransferFrom",
      "outputs": [],
      "stateMutability": "nonpayable",
      "type": "function"
    },
    {
      "inputs": [
        {
          "internalType": "address",
          "name": "operator",
          "type": "address"
        },
        {
          "internalType": "bool",
          "name": "approved",
          "type": "bool"
        }
      ],
      "name": "setApprovalForAll",
      "outputs": [],
      "stateMutability": "nonpayable",
      "type": "function"
    },
    {
      "inputs": [
        {
          "internalType": "string",
          "name": "baseUrl",
          "type": "string"
        }
      ],
      "name": "setBaseUrl",
      "outputs": [],
      "stateMutability": "nonpayable",
      "type": "function"
    },
    {
      "inputs": [
        {
          "internalType": "uint256",
          "name": "category",
          "type": "uint256"
        },
        {
          "internalType": "uint256",
          "name": "maxCount",
          "type": "uint256"
        }
      ],
      "name": "setCategoryMaxCount",
      "outputs": [],
      "stateMutability": "nonpayable",
      "type": "function"
    },
    {
      "inputs": [
        {
          "internalType": "uint256",
          "name": "category",
          "type": "uint256"
        },
        {
          "internalType": "uint256",
          "name": "price",
          "type": "uint256"
        }
      ],
      "name": "setCategoryPrice",
      "outputs": [],
      "stateMutability": "nonpayable",
      "type": "function"
    },
    {
      "inputs": [
        {
          "internalType": "uint256",
          "name": "index",
          "type": "uint256"
        },
        {
          "internalType": "address",
          "name": "recipient",
          "type": "address"
        },
        {
          "internalType": "uint256",
          "name": "feePercent",
          "type": "uint256"
        }
      ],
      "name": "setFeeRecipient",
      "outputs": [],
      "stateMutability": "nonpayable",
      "type": "function"
    },
    {
      "inputs": [],
      "name": "setManager",
      "outputs": [],
      "stateMutability": "nonpayable",
      "type": "function"
    },
    {
      "inputs": [
        {
          "internalType": "bytes4",
          "name": "interfaceId",
          "type": "bytes4"
        }
      ],
      "name": "supportsInterface",
      "outputs": [
        {
          "internalType": "bool",
          "name": "",
          "type": "bool"
        }
      ],
      "stateMutability": "view",
      "type": "function"
    },
    {
      "inputs": [],
      "name": "symbol",
      "outputs": [
        {
          "internalType": "string",
          "name": "",
          "type": "string"
        }
      ],
      "stateMutability": "view",
      "type": "function"
    },
    {
      "inputs": [
        {
          "internalType": "uint256",
          "name": "tokenId",
          "type": "uint256"
        }
      ],
      "name": "tokenMetaDataUrl",
      "outputs": [
        {
          "internalType": "string",
          "name": "",
          "type": "string"
        }
      ],
      "stateMutability": "view",
      "type": "function"
    },
    {
      "inputs": [
        {
          "internalType": "uint256",
          "name": "tokenId",
          "type": "uint256"
        }
      ],
      "name": "tokenURI",
      "outputs": [
        {
          "internalType": "string",
          "name": "",
          "type": "string"
        }
      ],
      "stateMutability": "view",
      "type": "function"
    },
    {
      "inputs": [
        {
          "internalType": "address",
          "name": "from",
          "type": "address"
        },
        {
          "internalType": "address",
          "name": "to",
          "type": "address"
        },
        {
          "internalType": "uint256",
          "name": "tokenId",
          "type": "uint256"
        }
      ],
      "name": "transferFrom",
      "outputs": [],
      "stateMutability": "nonpayable",
      "type": "function"
    },
    {
      "inputs": [
        {
          "internalType": "address",
          "name": "to",
          "type": "address"
        },
        {
          "internalType": "uint256",
          "name": "amount",
          "type": "uint256"
        }
      ],
      "name": "withdrawERC20",
      "outputs": [],
      "stateMutability": "nonpayable",
      "type": "function"
    },
    {
      "inputs": [
        {
          "internalType": "uint256",
          "name": "tokenId",
          "type": "uint256"
        },
        {
          "internalType": "address",
          "name": "to",
          "type": "address"
        }
      ],
      "name": "withdrawNFT",
      "outputs": [],
      "stateMutability": "payable",
      "type": "function"
    },
    {
      "inputs": [
        {
          "internalType": "uint256",
          "name": "tokenId",
          "type": "uint256"
        },
        {
          "internalType": "address",
          "name": "to",
          "type": "address"
        }
      ],
      "name": "withdrawNFTByManager",
      "outputs": [],
      "stateMutability": "nonpayable",
      "type": "function"
    }
  ],
  "bytecode": "0x60806040523480156200001157600080fd5b506040516200521c3803806200521c8339818101604052810190620000379190620003b6565b6040518060400160405280600881526020017f4d696e644d696e740000000000000000000000000000000000000000000000008152506040518060400160405280600381526020017f4e465400000000000000000000000000000000000000000000000000000000008152508160009080519060200190620000bb9291906200027d565b508060019080519060200190620000d49291906200027d565b50505081600b60006101000a81548173ffffffffffffffffffffffffffffffffffffffff021916908373ffffffffffffffffffffffffffffffffffffffff1602179055506000600c60006101000a81548173ffffffffffffffffffffffffffffffffffffffff021916908373ffffffffffffffffffffffffffffffffffffffff16021790555080600d9080519060200190620001729291906200027d565b5060005b6008811015620002745760006007600083815260200190815260200160002081905550611388600860008381526020019081526020016000208190555060116040518060400160405280600073ffffffffffffffffffffffffffffffffffffffff1681526020016000815250908060018154018082558091505060019003906000526020600020906002020160009091909190915060008201518160000160006101000a81548173ffffffffffffffffffffffffffffffffffffffff021916908373ffffffffffffffffffffffffffffffffffffffff16021790555060208201518160010155505080806200026b906200054f565b91505062000176565b50505062000655565b8280546200028b90620004e3565b90600052602060002090601f016020900481019282620002af5760008555620002fb565b82601f10620002ca57805160ff1916838001178555620002fb565b82800160010185558215620002fb579182015b82811115620002fa578251825591602001919060010190620002dd565b5b5090506200030a91906200030e565b5090565b5b80821115620003295760008160009055506001016200030f565b5090565b6000620003446200033e8462000439565b62000410565b9050828152602081018484840111156200035d57600080fd5b6200036a848285620004ad565b509392505050565b60008151905062000383816200063b565b92915050565b600082601f8301126200039b57600080fd5b8151620003ad8482602086016200032d565b91505092915050565b60008060408385031215620003ca57600080fd5b6000620003da8582860162000372565b925050602083015167ffffffffffffffff811115620003f857600080fd5b620004068582860162000389565b9150509250929050565b60006200041c6200042f565b90506200042a828262000519565b919050565b6000604051905090565b600067ffffffffffffffff821115620004575762000456620005fb565b5b62000462826200062a565b9050602081019050919050565b60006200047c8262000483565b9050919050565b600073ffffffffffffffffffffffffffffffffffffffff82169050919050565b6000819050919050565b60005b83811015620004cd578082015181840152602081019050620004b0565b83811115620004dd576000848401525b50505050565b60006002820490506001821680620004fc57607f821691505b60208210811415620005135762000512620005cc565b5b50919050565b62000524826200062a565b810181811067ffffffffffffffff82111715620005465762000545620005fb565b5b80604052505050565b60006200055c82620004a3565b91507fffffffffffffffffffffffffffffffffffffffffffffffffffffffffffffffff8214156200059257620005916200059d565b5b600182019050919050565b7f4e487b7100000000000000000000000000000000000000000000000000000000600052601160045260246000fd5b7f4e487b7100000000000000000000000000000000000000000000000000000000600052602260045260246000fd5b7f4e487b7100000000000000000000000000000000000000000000000000000000600052604160045260246000fd5b6000601f19601f8301169050919050565b62000646816200046f565b81146200065257600080fd5b50565b614bb780620006656000396000f3fe6080604052600436106102045760003560e01c806370fb262111610118578063c1d2d00d116100a0578063d22e07f41161006f578063d22e07f41461078d578063d5009584146107ca578063e91a7ca6146107f5578063e985e9c514610811578063fe7e2f731461084e57610204565b8063c1d2d00d146106e0578063c7334bb3146106fc578063c7c3268b14610727578063c87b56dd1461075057610204565b8063a1db9782116100e7578063a1db9782146105fd578063a22cb46514610626578063a7e91ab71461064f578063b88d4fde1461068c578063ba3fd190146106b557610204565b806370fb262114610554578063717efe4d146105925780638d258104146105bb57806395d89b41146105d257610204565b806323b872dd1161019b5780636352211e1161016a5780636352211e1461044b57806366478c3c146104885780636ac11e3a146104b15780636d423b75146104ee57806370a082311461051757610204565b806323b872dd1461039157806332cb6b0c146103ba57806342842e0e146103e5578063603168011461040e57610204565b80630ac96103116101d75780630ac96103146102d757806312af6a1014610302578063150b7a021461032b5780631b2ef1ca1461036857610204565b806301ffc9a71461020957806306fdde0314610246578063081812fc14610271578063095ea7b3146102ae575b600080fd5b34801561021557600080fd5b50610230600480360381019061022b91906135cb565b61088b565b60405161023d9190613d55565b60405180910390f35b34801561025257600080fd5b5061025b61096d565b6040516102689190613d8b565b60405180910390f35b34801561027d57600080fd5b506102986004803603810190610293919061365e565b6109ff565b6040516102a59190613c8e565b60405180910390f35b3480156102ba57600080fd5b506102d560048036038101906102d09190613566565b610a45565b005b3480156102e357600080fd5b506102ec610b5d565b6040516102f99190613d8b565b60405180910390f35b34801561030e57600080fd5b5061032960048036038101906103249190613712565b610bef565b005b34801561033757600080fd5b50610352600480360381019061034d91906134af565b610c4e565b60405161035f9190613d70565b60405180910390f35b34801561037457600080fd5b5061038f600480360381019061038a9190613712565b610c62565b005b34801561039d57600080fd5b506103b860048036038101906103b39190613460565b6111ac565b005b3480156103c657600080fd5b506103cf61120c565b6040516103dc919061410d565b60405180910390f35b3480156103f157600080fd5b5061040c60048036038101906104079190613460565b611212565b005b34801561041a57600080fd5b506104356004803603810190610430919061365e565b611232565b6040516104429190613d8b565b60405180910390f35b34801561045757600080fd5b50610472600480360381019061046d919061365e565b61131f565b60405161047f9190613c8e565b60405180910390f35b34801561049457600080fd5b506104af60048036038101906104aa91906136c3565b6113a6565b005b3480156104bd57600080fd5b506104d860048036038101906104d3919061365e565b6114cc565b6040516104e59190613d8b565b60405180910390f35b3480156104fa57600080fd5b5061051560048036038101906105109190613687565b611543565b005b34801561052357600080fd5b5061053e600480360381019061053991906133fb565b6116aa565b60405161054b919061410d565b60405180910390f35b34801561056057600080fd5b5061057b6004803603810190610576919061365e565b611762565b604051610589929190613d2c565b60405180910390f35b34801561059e57600080fd5b506105b960048036038101906105b49190613712565b61186d565b005b3480156105c757600080fd5b506105d06118cc565b005b3480156105de57600080fd5b506105e76119a0565b6040516105f49190613d8b565b60405180910390f35b34801561060957600080fd5b50610624600480360381019061061f9190613566565b611a32565b005b34801561063257600080fd5b5061064d6004803603810190610648919061352a565b611bb9565b005b34801561065b57600080fd5b506106766004803603810190610671919061365e565b611bcf565b604051610683919061410d565b60405180910390f35b34801561069857600080fd5b506106b360048036038101906106ae91906134af565b611bf1565b005b3480156106c157600080fd5b506106ca611c53565b6040516106d7919061410d565b60405180910390f35b6106fa60048036038101906106f59190613687565b611c59565b005b34801561070857600080fd5b50610711611ebb565b60405161071e919061410d565b60405180910390f35b34801561073357600080fd5b5061074e6004803603810190610749919061361d565b611ec0565b005b34801561075c57600080fd5b506107776004803603810190610772919061365e565b611eda565b6040516107849190613d8b565b60405180910390f35b34801561079957600080fd5b506107b460048036038101906107af919061365e565b611fc7565b6040516107c1919061410d565b60405180910390f35b3480156107d657600080fd5b506107df612027565b6040516107ec9190613c8e565b60405180910390f35b61080f600480360381019061080a919061365e565b612051565b005b34801561081d57600080fd5b5061083860048036038101906108339190613424565b612306565b6040516108459190613d55565b60405180910390f35b34801561085a57600080fd5b506108756004803603810190610870919061365e565b61239a565b604051610882919061410d565b60405180910390f35b60007f80ac58cd000000000000000000000000000000000000000000000000000000007bffffffffffffffffffffffffffffffffffffffffffffffffffffffff1916827bffffffffffffffffffffffffffffffffffffffffffffffffffffffff1916148061095657507f5b5e139f000000000000000000000000000000000000000000000000000000007bffffffffffffffffffffffffffffffffffffffffffffffffffffffff1916827bffffffffffffffffffffffffffffffffffffffffffffffffffffffff1916145b806109665750610965826123fa565b5b9050919050565b60606000805461097c906143d2565b80601f01602080910402602001604051908101604052809291908181526020018280546109a8906143d2565b80156109f55780601f106109ca576101008083540402835291602001916109f5565b820191906000526020600020905b8154815290600101906020018083116109d857829003601f168201915b5050505050905090565b6000610a0a82612464565b6004600083815260200190815260200160002060009054906101000a900473ffffffffffffffffffffffffffffffffffffffff169050919050565b6000610a508261131f565b90508073ffffffffffffffffffffffffffffffffffffffff168373ffffffffffffffffffffffffffffffffffffffff161415610ac1576040517f08c379a0000000000000000000000000000000000000000000000000000000008152600401610ab89061402d565b60405180910390fd5b8073ffffffffffffffffffffffffffffffffffffffff16610ae06124af565b73ffffffffffffffffffffffffffffffffffffffff161480610b0f5750610b0e81610b096124af565b612306565b5b610b4e576040517f08c379a0000000000000000000000000000000000000000000000000000000008152600401610b459061408d565b60405180910390fd5b610b5883836124b7565b505050565b6060600d8054610b6c906143d2565b80601f0160208091040260200160405190810160405280929190818152602001828054610b98906143d2565b8015610be55780601f10610bba57610100808354040283529160200191610be5565b820191906000526020600020905b815481529060010190602001808311610bc857829003601f168201915b5050505050905090565b60088210610c32576040517f08c379a0000000000000000000000000000000000000000000000000000000008152600401610c299061406d565b60405180910390fd5b8060076000848152602001908152602001600020819055505050565b600063150b7a0260e01b9050949350505050565b60088210610ca5576040517f08c379a0000000000000000000000000000000000000000000000000000000008152600401610c9c9061406d565b60405180910390fd5b6008600083815260200190815260200160002054600960008481526020019081526020016000205410610d0d576040517f08c379a0000000000000000000000000000000000000000000000000000000008152600401610d04906140ed565b60405180910390fd5b619c40610d1a6006612570565b10610d5a576040517f08c379a0000000000000000000000000000000000000000000000000000000008152600401610d5190613fad565b60405180910390fd5b600060076000848152602001908152602001600020549050600b60009054906101000a900473ffffffffffffffffffffffffffffffffffffffff1673ffffffffffffffffffffffffffffffffffffffff166323b872dd3330846040518463ffffffff1660e01b8152600401610dd193929190613ca9565b602060405180830381600087803b158015610deb57600080fd5b505af1158015610dff573d6000803e3d6000fd5b505050506040513d601f19601f82011682018060405250810190610e2391906135a2565b610e62576040517f08c379a0000000000000000000000000000000000000000000000000000000008152600401610e5990613f6d565b60405180910390fd5b60005b60118054905081101561108757600060118281548110610eae577f4e487b7100000000000000000000000000000000000000000000000000000000600052603260045260246000fd5b906000526020600020906002020160010154111561107457600b60009054906101000a900473ffffffffffffffffffffffffffffffffffffffff1673ffffffffffffffffffffffffffffffffffffffff1663a9059cbb60118381548110610f3e577f4e487b7100000000000000000000000000000000000000000000000000000000600052603260045260246000fd5b906000526020600020906002020160000160009054906101000a900473ffffffffffffffffffffffffffffffffffffffff16610fc58560118681548110610fae577f4e487b7100000000000000000000000000000000000000000000000000000000600052603260045260246000fd5b90600052602060002090600202016001015461257e565b6040518363ffffffff1660e01b8152600401610fe2929190613d2c565b602060405180830381600087803b158015610ffc57600080fd5b505af1158015611010573d6000803e3d6000fd5b505050506040513d601f19601f8201168201806040525081019061103491906135a2565b611073576040517f08c379a000000000000000000000000000000000000000000000000000000000815260040161106a90613f0d565b60405180910390fd5b5b808061107f90614435565b915050610e65565b5061109260066125a0565b61109c30836125b6565b6009600084815260200190815260200160002060008154809291906110c090614435565b919050555030600e600084815260200190815260200160002060006101000a81548173ffffffffffffffffffffffffffffffffffffffff021916908373ffffffffffffffffffffffffffffffffffffffff16021790555033600f600084815260200190815260200160002060006101000a81548173ffffffffffffffffffffffffffffffffffffffff021916908373ffffffffffffffffffffffffffffffffffffffff16021790555060016010600084815260200190815260200160002060006101000a81548160ff0219169083151502179055506111a7826111a2846114cc565b6125d4565b505050565b6111bd6111b76124af565b82612648565b6111fc576040517f08c379a00000000000000000000000000000000000000000000000000000000081526004016111f390613dad565b60405180910390fd5b6112078383836126dd565b505050565b619c4081565b61122d83838360405180602001604052806000815250611bf1565b505050565b606061123d826129d7565b61127c576040517f08c379a00000000000000000000000000000000000000000000000000000000081526004016112739061400d565b60405180910390fd5b600a6000838152602001908152602001600020805461129a906143d2565b80601f01602080910402602001604051908101604052809291908181526020018280546112c6906143d2565b80156113135780601f106112e857610100808354040283529160200191611313565b820191906000526020600020905b8154815290600101906020018083116112f657829003601f168201915b50505050509050919050565b60008061132b83612a18565b9050600073ffffffffffffffffffffffffffffffffffffffff168173ffffffffffffffffffffffffffffffffffffffff16141561139d576040517f08c379a000000000000000000000000000000000000000000000000000000000815260040161139490613fed565b60405180910390fd5b80915050919050565b60118054905083106113ed576040517f08c379a00000000000000000000000000000000000000000000000000000000081526004016113e490613e4d565b60405180910390fd5b8160118481548110611428577f4e487b7100000000000000000000000000000000000000000000000000000000600052603260045260246000fd5b906000526020600020906002020160000160006101000a81548173ffffffffffffffffffffffffffffffffffffffff021916908373ffffffffffffffffffffffffffffffffffffffff16021790555080601184815481106114b2577f4e487b7100000000000000000000000000000000000000000000000000000000600052603260045260246000fd5b906000526020600020906002020160010181905550505050565b606060006040518060400160405280600581526020017f2e6a736f6e0000000000000000000000000000000000000000000000000000008152509050600061151384612a55565b9050600d818360405160200161152b93929190613c5d565b60405160208183030381529060405292505050919050565b600c60009054906101000a900473ffffffffffffffffffffffffffffffffffffffff1673ffffffffffffffffffffffffffffffffffffffff163373ffffffffffffffffffffffffffffffffffffffff16146115d3576040517f08c379a00000000000000000000000000000000000000000000000000000000081526004016115ca90613f2d565b60405180910390fd5b3073ffffffffffffffffffffffffffffffffffffffff166115f38361131f565b73ffffffffffffffffffffffffffffffffffffffff1614611649576040517f08c379a000000000000000000000000000000000000000000000000000000000815260040161164090613ecd565b60405180910390fd5b6116543082846126dd565b80600e600084815260200190815260200160002060006101000a81548173ffffffffffffffffffffffffffffffffffffffff021916908373ffffffffffffffffffffffffffffffffffffffff1602179055505050565b60008073ffffffffffffffffffffffffffffffffffffffff168273ffffffffffffffffffffffffffffffffffffffff16141561171b576040517f08c379a000000000000000000000000000000000000000000000000000000000815260040161171290613f4d565b60405180910390fd5b600360008373ffffffffffffffffffffffffffffffffffffffff1673ffffffffffffffffffffffffffffffffffffffff168152602001908152602001600020549050919050565b60008060118054905083106117ac576040517f08c379a00000000000000000000000000000000000000000000000000000000081526004016117a390613e4d565b60405180910390fd5b601183815481106117e6577f4e487b7100000000000000000000000000000000000000000000000000000000600052603260045260246000fd5b906000526020600020906002020160000160009054906101000a900473ffffffffffffffffffffffffffffffffffffffff1660118481548110611852577f4e487b7100000000000000000000000000000000000000000000000000000000600052603260045260246000fd5b90600052602060002090600202016001015491509150915091565b600882106118b0576040517f08c379a00000000000000000000000000000000000000000000000000000000081526004016118a79061406d565b60405180910390fd5b8060086000848152602001908152602001600020819055505050565b600073ffffffffffffffffffffffffffffffffffffffff16600c60009054906101000a900473ffffffffffffffffffffffffffffffffffffffff1673ffffffffffffffffffffffffffffffffffffffff161461195d576040517f08c379a00000000000000000000000000000000000000000000000000000000081526004016119549061404d565b60405180910390fd5b33600c60006101000a81548173ffffffffffffffffffffffffffffffffffffffff021916908373ffffffffffffffffffffffffffffffffffffffff160217905550565b6060600180546119af906143d2565b80601f01602080910402602001604051908101604052809291908181526020018280546119db906143d2565b8015611a285780601f106119fd57610100808354040283529160200191611a28565b820191906000526020600020905b815481529060010190602001808311611a0b57829003601f168201915b5050505050905090565b600c60009054906101000a900473ffffffffffffffffffffffffffffffffffffffff1673ffffffffffffffffffffffffffffffffffffffff163373ffffffffffffffffffffffffffffffffffffffff1614611ac2576040517f08c379a0000000000000000000000000000000000000000000000000000000008152600401611ab990613eed565b60405180910390fd5b60008111611b05576040517f08c379a0000000000000000000000000000000000000000000000000000000008152600401611afc90613e6d565b60405180910390fd5b600b60009054906101000a900473ffffffffffffffffffffffffffffffffffffffff1673ffffffffffffffffffffffffffffffffffffffff1663a9059cbb83836040518363ffffffff1660e01b8152600401611b62929190613d2c565b602060405180830381600087803b158015611b7c57600080fd5b505af1158015611b90573d6000803e3d6000fd5b505050506040513d601f19601f82011682018060405250810190611bb491906135a2565b505050565b611bcb611bc46124af565b8383612c02565b5050565b600080670de0b6b3a764000083611be6919061428e565b905080915050919050565b611c02611bfc6124af565b83612648565b611c41576040517f08c379a0000000000000000000000000000000000000000000000000000000008152600401611c3890613dad565b60405180910390fd5b611c4d84848484612d6f565b50505050565b61138881565b3073ffffffffffffffffffffffffffffffffffffffff16611c798361131f565b73ffffffffffffffffffffffffffffffffffffffff1614611ccf576040517f08c379a0000000000000000000000000000000000000000000000000000000008152600401611cc690613ecd565b60405180910390fd5b3373ffffffffffffffffffffffffffffffffffffffff16600f600084815260200190815260200160002060009054906101000a900473ffffffffffffffffffffffffffffffffffffffff1673ffffffffffffffffffffffffffffffffffffffff1614611d70576040517f08c379a0000000000000000000000000000000000000000000000000000000008152600401611d67906140ad565b60405180910390fd5b660aa87bee5380003414611db9576040517f08c379a0000000000000000000000000000000000000000000000000000000008152600401611db090613fcd565b60405180910390fd5b611dc43082846126dd565b80600e600084815260200190815260200160002060006101000a81548173ffffffffffffffffffffffffffffffffffffffff021916908373ffffffffffffffffffffffffffffffffffffffff16021790555060006010600084815260200190815260200160002060006101000a81548160ff021916908315150217905550600c60009054906101000a900473ffffffffffffffffffffffffffffffffffffffff1673ffffffffffffffffffffffffffffffffffffffff166108fc600234611e8b919061425d565b9081150290604051600060405180830381858888f19350505050158015611eb6573d6000803e3d6000fd5b505050565b600881565b80600d9080519060200190611ed692919061320a565b5050565b6060611ee5826129d7565b611f24576040517f08c379a0000000000000000000000000000000000000000000000000000000008152600401611f1b9061400d565b60405180910390fd5b600a60008381526020019081526020016000208054611f42906143d2565b80601f0160208091040260200160405190810160405280929190818152602001828054611f6e906143d2565b8015611fbb5780601f10611f9057610100808354040283529160200191611fbb565b820191906000526020600020905b815481529060010190602001808311611f9e57829003601f168201915b50505050509050919050565b60006008821061200c576040517f08c379a00000000000000000000000000000000000000000000000000000000081526004016120039061406d565b60405180910390fd5b60076000838152602001908152602001600020549050919050565b6000600c60009054906101000a900473ffffffffffffffffffffffffffffffffffffffff16905090565b3373ffffffffffffffffffffffffffffffffffffffff166120718261131f565b73ffffffffffffffffffffffffffffffffffffffff16146120c7576040517f08c379a00000000000000000000000000000000000000000000000000000000081526004016120be90613ded565b60405180910390fd5b6010600082815260200190815260200160002060009054906101000a900460ff1615612128576040517f08c379a000000000000000000000000000000000000000000000000000000000815260040161211f906140cd565b60405180910390fd5b660aa87bee5380003414612171576040517f08c379a000000000000000000000000000000000000000000000000000000000815260040161216890613fcd565b60405180910390fd5b60016010600083815260200190815260200160002060006101000a81548160ff02191690831515021790555030600e600083815260200190815260200160002060006101000a81548173ffffffffffffffffffffffffffffffffffffffff021916908373ffffffffffffffffffffffffffffffffffffffff16021790555033600f600083815260200190815260200160002060006101000a81548173ffffffffffffffffffffffffffffffffffffffff021916908373ffffffffffffffffffffffffffffffffffffffff16021790555061224c3330836126dd565b600c60009054906101000a900473ffffffffffffffffffffffffffffffffffffffff1673ffffffffffffffffffffffffffffffffffffffff166108fc349081150290604051600060405180830381858888f193505050501580156122b4573d6000803e3d6000fd5b503373ffffffffffffffffffffffffffffffffffffffff167f1c4b8380f61aea3d5d98cbadaf2e6b2e4f3d8ca8c0fce1290b26ac267158745f826040516122fb919061410d565b60405180910390a250565b6000600560008473ffffffffffffffffffffffffffffffffffffffff1673ffffffffffffffffffffffffffffffffffffffff16815260200190815260200160002060008373ffffffffffffffffffffffffffffffffffffffff1673ffffffffffffffffffffffffffffffffffffffff16815260200190815260200160002060009054906101000a900460ff16905092915050565b6000600882106123df576040517f08c379a00000000000000000000000000000000000000000000000000000000081526004016123d69061406d565b60405180910390fd5b60086000838152602001908152602001600020549050919050565b60007f01ffc9a7000000000000000000000000000000000000000000000000000000007bffffffffffffffffffffffffffffffffffffffffffffffffffffffff1916827bffffffffffffffffffffffffffffffffffffffffffffffffffffffff1916149050919050565b61246d816129d7565b6124ac576040517f08c379a00000000000000000000000000000000000000000000000000000000081526004016124a390613fed565b60405180910390fd5b50565b600033905090565b816004600083815260200190815260200160002060006101000a81548173ffffffffffffffffffffffffffffffffffffffff021916908373ffffffffffffffffffffffffffffffffffffffff160217905550808273ffffffffffffffffffffffffffffffffffffffff1661252a8361131f565b73ffffffffffffffffffffffffffffffffffffffff167f8c5be1e5ebec7d5bd14f71427d1e84f3dd0314c0f7b2291e5b200ac8c7c3b92560405160405180910390a45050565b600081600001549050919050565b60006064828461258e919061428e565b612598919061425d565b905092915050565b6001816000016000828254019250508190555050565b6125d0828260405180602001604052806000815250612dcb565b5050565b6125dd826129d7565b61261c576040517f08c379a00000000000000000000000000000000000000000000000000000000081526004016126139061400d565b60405180910390fd5b80600a6000848152602001908152602001600020908051906020019061264392919061320a565b505050565b6000806126548361131f565b90508073ffffffffffffffffffffffffffffffffffffffff168473ffffffffffffffffffffffffffffffffffffffff16148061269657506126958185612306565b5b806126d457508373ffffffffffffffffffffffffffffffffffffffff166126bc846109ff565b73ffffffffffffffffffffffffffffffffffffffff16145b91505092915050565b8273ffffffffffffffffffffffffffffffffffffffff166126fd8261131f565b73ffffffffffffffffffffffffffffffffffffffff1614612753576040517f08c379a000000000000000000000000000000000000000000000000000000000815260040161274a90613e0d565b60405180910390fd5b600073ffffffffffffffffffffffffffffffffffffffff168273ffffffffffffffffffffffffffffffffffffffff1614156127c3576040517f08c379a00000000000000000000000000000000000000000000000000000000081526004016127ba90613e8d565b60405180910390fd5b6127d08383836001612e26565b8273ffffffffffffffffffffffffffffffffffffffff166127f08261131f565b73ffffffffffffffffffffffffffffffffffffffff1614612846576040517f08c379a000000000000000000000000000000000000000000000000000000000815260040161283d90613e0d565b60405180910390fd5b6004600082815260200190815260200160002060006101000a81549073ffffffffffffffffffffffffffffffffffffffff02191690556001600360008573ffffffffffffffffffffffffffffffffffffffff1673ffffffffffffffffffffffffffffffffffffffff168152602001908152602001600020600082825403925050819055506001600360008473ffffffffffffffffffffffffffffffffffffffff1673ffffffffffffffffffffffffffffffffffffffff16815260200190815260200160002060008282540192505081905550816002600083815260200190815260200160002060006101000a81548173ffffffffffffffffffffffffffffffffffffffff021916908373ffffffffffffffffffffffffffffffffffffffff160217905550808273ffffffffffffffffffffffffffffffffffffffff168473ffffffffffffffffffffffffffffffffffffffff167fddf252ad1be2c89b69c2b068fc378daa952ba7f163c4a11628f55a4df523b3ef60405160405180910390a46129d28383836001612e2c565b505050565b60008073ffffffffffffffffffffffffffffffffffffffff166129f983612a18565b73ffffffffffffffffffffffffffffffffffffffff1614159050919050565b60006002600083815260200190815260200160002060009054906101000a900473ffffffffffffffffffffffffffffffffffffffff169050919050565b60606000821415612a9d576040518060400160405280600181526020017f30000000000000000000000000000000000000000000000000000000000000008152509050612bfd565b600082905060005b60008214612acf578080612ab890614435565b915050600a82612ac8919061425d565b9150612aa5565b60008167ffffffffffffffff811115612b11577f4e487b7100000000000000000000000000000000000000000000000000000000600052604160045260246000fd5b6040519080825280601f01601f191660200182016040528015612b435781602001600182028036833780820191505090505b5090505b60008514612bf657600182612b5c91906142e8565b9150600a85612b6b919061447e565b6030612b779190614207565b60f81b818381518110612bb3577f4e487b7100000000000000000000000000000000000000000000000000000000600052603260045260246000fd5b60200101907effffffffffffffffffffffffffffffffffffffffffffffffffffffffffffff1916908160001a905350600a85612bef919061425d565b9450612b47565b8093505050505b919050565b8173ffffffffffffffffffffffffffffffffffffffff168373ffffffffffffffffffffffffffffffffffffffff161415612c71576040517f08c379a0000000000000000000000000000000000000000000000000000000008152600401612c6890613ead565b60405180910390fd5b80600560008573ffffffffffffffffffffffffffffffffffffffff1673ffffffffffffffffffffffffffffffffffffffff16815260200190815260200160002060008473ffffffffffffffffffffffffffffffffffffffff1673ffffffffffffffffffffffffffffffffffffffff16815260200190815260200160002060006101000a81548160ff0219169083151502179055508173ffffffffffffffffffffffffffffffffffffffff168373ffffffffffffffffffffffffffffffffffffffff167f17307eab39ab6107e8899845ad3d59bd9653f200f220920489ca2b5937696c3183604051612d629190613d55565b60405180910390a3505050565b612d7a8484846126dd565b612d8684848484612e32565b612dc5576040517f08c379a0000000000000000000000000000000000000000000000000000000008152600401612dbc90613dcd565b60405180910390fd5b50505050565b612dd58383612fc9565b612de26000848484612e32565b612e21576040517f08c379a0000000000000000000000000000000000000000000000000000000008152600401612e1890613dcd565b60405180910390fd5b505050565b50505050565b50505050565b6000612e538473ffffffffffffffffffffffffffffffffffffffff166131e7565b15612fbc578373ffffffffffffffffffffffffffffffffffffffff1663150b7a02612e7c6124af565b8786866040518563ffffffff1660e01b8152600401612e9e9493929190613ce0565b602060405180830381600087803b158015612eb857600080fd5b505af1925050508015612ee957506040513d601f19601f82011682018060405250810190612ee691906135f4565b60015b612f6c573d8060008114612f19576040519150601f19603f3d011682016040523d82523d6000602084013e612f1e565b606091505b50600081511415612f64576040517f08c379a0000000000000000000000000000000000000000000000000000000008152600401612f5b90613dcd565b60405180910390fd5b805181602001fd5b63150b7a0260e01b7bffffffffffffffffffffffffffffffffffffffffffffffffffffffff1916817bffffffffffffffffffffffffffffffffffffffffffffffffffffffff191614915050612fc1565b600190505b949350505050565b600073ffffffffffffffffffffffffffffffffffffffff168273ffffffffffffffffffffffffffffffffffffffff161415613039576040517f08c379a000000000000000000000000000000000000000000000000000000000815260040161303090613f8d565b60405180910390fd5b613042816129d7565b15613082576040517f08c379a000000000000000000000000000000000000000000000000000000000815260040161307990613e2d565b60405180910390fd5b613090600083836001612e26565b613099816129d7565b156130d9576040517f08c379a00000000000000000000000000000000000000000000000000000000081526004016130d090613e2d565b60405180910390fd5b6001600360008473ffffffffffffffffffffffffffffffffffffffff1673ffffffffffffffffffffffffffffffffffffffff16815260200190815260200160002060008282540192505081905550816002600083815260200190815260200160002060006101000a81548173ffffffffffffffffffffffffffffffffffffffff021916908373ffffffffffffffffffffffffffffffffffffffff160217905550808273ffffffffffffffffffffffffffffffffffffffff16600073ffffffffffffffffffffffffffffffffffffffff167fddf252ad1be2c89b69c2b068fc378daa952ba7f163c4a11628f55a4df523b3ef60405160405180910390a46131e3600083836001612e2c565b5050565b6000808273ffffffffffffffffffffffffffffffffffffffff163b119050919050565b828054613216906143d2565b90600052602060002090601f016020900481019282613238576000855561327f565b82601f1061325157805160ff191683800117855561327f565b8280016001018555821561327f579182015b8281111561327e578251825591602001919060010190613263565b5b50905061328c9190613290565b5090565b5b808211156132a9576000816000905550600101613291565b5090565b60006132c06132bb8461414d565b614128565b9050828152602081018484840111156132d857600080fd5b6132e3848285614390565b509392505050565b60006132fe6132f98461417e565b614128565b90508281526020810184848401111561331657600080fd5b613321848285614390565b509392505050565b60008135905061333881614b25565b92915050565b60008135905061334d81614b3c565b92915050565b60008151905061336281614b3c565b92915050565b60008135905061337781614b53565b92915050565b60008151905061338c81614b53565b92915050565b600082601f8301126133a357600080fd5b81356133b38482602086016132ad565b91505092915050565b600082601f8301126133cd57600080fd5b81356133dd8482602086016132eb565b91505092915050565b6000813590506133f581614b6a565b92915050565b60006020828403121561340d57600080fd5b600061341b84828501613329565b91505092915050565b6000806040838503121561343757600080fd5b600061344585828601613329565b925050602061345685828601613329565b9150509250929050565b60008060006060848603121561347557600080fd5b600061348386828701613329565b935050602061349486828701613329565b92505060406134a5868287016133e6565b9150509250925092565b600080600080608085870312156134c557600080fd5b60006134d387828801613329565b94505060206134e487828801613329565b93505060406134f5878288016133e6565b925050606085013567ffffffffffffffff81111561351257600080fd5b61351e87828801613392565b91505092959194509250565b6000806040838503121561353d57600080fd5b600061354b85828601613329565b925050602061355c8582860161333e565b9150509250929050565b6000806040838503121561357957600080fd5b600061358785828601613329565b9250506020613598858286016133e6565b9150509250929050565b6000602082840312156135b457600080fd5b60006135c284828501613353565b91505092915050565b6000602082840312156135dd57600080fd5b60006135eb84828501613368565b91505092915050565b60006020828403121561360657600080fd5b60006136148482850161337d565b91505092915050565b60006020828403121561362f57600080fd5b600082013567ffffffffffffffff81111561364957600080fd5b613655848285016133bc565b91505092915050565b60006020828403121561367057600080fd5b600061367e848285016133e6565b91505092915050565b6000806040838503121561369a57600080fd5b60006136a8858286016133e6565b92505060206136b985828601613329565b9150509250929050565b6000806000606084860312156136d857600080fd5b60006136e6868287016133e6565b93505060206136f786828701613329565b9250506040613708868287016133e6565b9150509250925092565b6000806040838503121561372557600080fd5b6000613733858286016133e6565b9250506020613744858286016133e6565b9150509250929050565b6137578161431c565b82525050565b6137668161432e565b82525050565b6137758161433a565b82525050565b6000613786826141c4565b61379081856141da565b93506137a081856020860161439f565b6137a98161456b565b840191505092915050565b60006137bf826141cf565b6137c981856141eb565b93506137d981856020860161439f565b6137e28161456b565b840191505092915050565b60006137f8826141cf565b61380281856141fc565b935061381281856020860161439f565b80840191505092915050565b6000815461382b816143d2565b61383581866141fc565b94506001821660008114613850576001811461386157613894565b60ff19831686528186019350613894565b61386a856141af565b60005b8381101561388c5781548189015260018201915060208101905061386d565b838801955050505b50505092915050565b60006138aa602d836141eb565b91506138b58261457c565b604082019050919050565b60006138cd6032836141eb565b91506138d8826145cb565b604082019050919050565b60006138f06022836141eb565b91506138fb8261461a565b604082019050919050565b60006139136025836141eb565b915061391e82614669565b604082019050919050565b6000613936601c836141eb565b9150613941826146b8565b602082019050919050565b6000613959600d836141eb565b9150613964826146e1565b602082019050919050565b600061397c6020836141eb565b91506139878261470a565b602082019050919050565b600061399f6024836141eb565b91506139aa82614733565b604082019050919050565b60006139c26019836141eb565b91506139cd82614782565b602082019050919050565b60006139e56019836141eb565b91506139f0826147ab565b602082019050919050565b6000613a086019836141eb565b9150613a13826147d4565b602082019050919050565b6000613a2b6013836141eb565b9150613a36826147fd565b602082019050919050565b6000613a4e601d836141eb565b9150613a5982614826565b602082019050919050565b6000613a716029836141eb565b9150613a7c8261484f565b604082019050919050565b6000613a946015836141eb565b9150613a9f8261489e565b602082019050919050565b6000613ab76020836141eb565b9150613ac2826148c7565b602082019050919050565b6000613ada6017836141eb565b9150613ae5826148f0565b602082019050919050565b6000613afd6016836141eb565b9150613b0882614919565b602082019050919050565b6000613b206018836141eb565b9150613b2b82614942565b602082019050919050565b6000613b436010836141eb565b9150613b4e8261496b565b602082019050919050565b6000613b666021836141eb565b9150613b7182614994565b604082019050919050565b6000613b896014836141eb565b9150613b94826149e3565b602082019050919050565b6000613bac6010836141eb565b9150613bb782614a0c565b602082019050919050565b6000613bcf603d836141eb565b9150613bda82614a35565b604082019050919050565b6000613bf26024836141eb565b9150613bfd82614a84565b604082019050919050565b6000613c156015836141eb565b9150613c2082614ad3565b602082019050919050565b6000613c386018836141eb565b9150613c4382614afc565b602082019050919050565b613c5781614386565b82525050565b6000613c69828661381e565b9150613c7582856137ed565b9150613c8182846137ed565b9150819050949350505050565b6000602082019050613ca3600083018461374e565b92915050565b6000606082019050613cbe600083018661374e565b613ccb602083018561374e565b613cd86040830184613c4e565b949350505050565b6000608082019050613cf5600083018761374e565b613d02602083018661374e565b613d0f6040830185613c4e565b8181036060830152613d21818461377b565b905095945050505050565b6000604082019050613d41600083018561374e565b613d4e6020830184613c4e565b9392505050565b6000602082019050613d6a600083018461375d565b92915050565b6000602082019050613d85600083018461376c565b92915050565b60006020820190508181036000830152613da581846137b4565b905092915050565b60006020820190508181036000830152613dc68161389d565b9050919050565b60006020820190508181036000830152613de6816138c0565b9050919050565b60006020820190508181036000830152613e06816138e3565b9050919050565b60006020820190508181036000830152613e2681613906565b9050919050565b60006020820190508181036000830152613e4681613929565b9050919050565b60006020820190508181036000830152613e668161394c565b9050919050565b60006020820190508181036000830152613e868161396f565b9050919050565b60006020820190508181036000830152613ea681613992565b9050919050565b60006020820190508181036000830152613ec6816139b5565b9050919050565b60006020820190508181036000830152613ee6816139d8565b9050919050565b60006020820190508181036000830152613f06816139fb565b9050919050565b60006020820190508181036000830152613f2681613a1e565b9050919050565b60006020820190508181036000830152613f4681613a41565b9050919050565b60006020820190508181036000830152613f6681613a64565b9050919050565b60006020820190508181036000830152613f8681613a87565b9050919050565b60006020820190508181036000830152613fa681613aaa565b9050919050565b60006020820190508181036000830152613fc681613acd565b9050919050565b60006020820190508181036000830152613fe681613af0565b9050919050565b6000602082019050818103600083015261400681613b13565b9050919050565b6000602082019050818103600083015261402681613b36565b9050919050565b6000602082019050818103600083015261404681613b59565b9050919050565b6000602082019050818103600083015261406681613b7c565b9050919050565b6000602082019050818103600083015261408681613b9f565b9050919050565b600060208201905081810360008301526140a681613bc2565b9050919050565b600060208201905081810360008301526140c681613be5565b9050919050565b600060208201905081810360008301526140e681613c08565b9050919050565b6000602082019050818103600083015261410681613c2b565b9050919050565b60006020820190506141226000830184613c4e565b92915050565b6000614132614143565b905061413e8282614404565b919050565b6000604051905090565b600067ffffffffffffffff8211156141685761416761453c565b5b6141718261456b565b9050602081019050919050565b600067ffffffffffffffff8211156141995761419861453c565b5b6141a28261456b565b9050602081019050919050565b60008190508160005260206000209050919050565b600081519050919050565b600081519050919050565b600082825260208201905092915050565b600082825260208201905092915050565b600081905092915050565b600061421282614386565b915061421d83614386565b9250827fffffffffffffffffffffffffffffffffffffffffffffffffffffffffffffffff03821115614252576142516144af565b5b828201905092915050565b600061426882614386565b915061427383614386565b925082614283576142826144de565b5b828204905092915050565b600061429982614386565b91506142a483614386565b9250817fffffffffffffffffffffffffffffffffffffffffffffffffffffffffffffffff04831182151516156142dd576142dc6144af565b5b828202905092915050565b60006142f382614386565b91506142fe83614386565b925082821015614311576143106144af565b5b828203905092915050565b600061432782614366565b9050919050565b60008115159050919050565b60007fffffffff0000000000000000000000000000000000000000000000000000000082169050919050565b600073ffffffffffffffffffffffffffffffffffffffff82169050919050565b6000819050919050565b82818337600083830152505050565b60005b838110156143bd5780820151818401526020810190506143a2565b838111156143cc576000848401525b50505050565b600060028204905060018216806143ea57607f821691505b602082108114156143fe576143fd61450d565b5b50919050565b61440d8261456b565b810181811067ffffffffffffffff8211171561442c5761442b61453c565b5b80604052505050565b600061444082614386565b91507fffffffffffffffffffffffffffffffffffffffffffffffffffffffffffffffff821415614473576144726144af565b5b600182019050919050565b600061448982614386565b915061449483614386565b9250826144a4576144a36144de565b5b828206905092915050565b7f4e487b7100000000000000000000000000000000000000000000000000000000600052601160045260246000fd5b7f4e487b7100000000000000000000000000000000000000000000000000000000600052601260045260246000fd5b7f4e487b7100000000000000000000000000000000000000000000000000000000600052602260045260246000fd5b7f4e487b7100000000000000000000000000000000000000000000000000000000600052604160045260246000fd5b6000601f19601f8301169050919050565b7f4552433732313a2063616c6c6572206973206e6f7420746f6b656e206f776e6560008201527f72206f7220617070726f76656400000000000000000000000000000000000000602082015250565b7f4552433732313a207472616e7366657220746f206e6f6e20455243373231526560008201527f63656976657220696d706c656d656e7465720000000000000000000000000000602082015250565b7f4f6e6c7920746865206f776e65722063616e206465706f73697420746865204e60008201527f4654000000000000000000000000000000000000000000000000000000000000602082015250565b7f4552433732313a207472616e736665722066726f6d20696e636f72726563742060008201527f6f776e6572000000000000000000000000000000000000000000000000000000602082015250565b7f4552433732313a20746f6b656e20616c7265616479206d696e74656400000000600082015250565b7f496e76616c696420696e64657800000000000000000000000000000000000000600082015250565b7f416d6f756e74206d7573742062652067726561746572207468616e207a65726f600082015250565b7f4552433732313a207472616e7366657220746f20746865207a65726f2061646460008201527f7265737300000000000000000000000000000000000000000000000000000000602082015250565b7f4552433732313a20617070726f766520746f2063616c6c657200000000000000600082015250565b7f4e4654206e6f74206f776e656420627920636f6e747261637400000000000000600082015250565b7f4f6e6c79206d616e616765722063616e20776974686472617700000000000000600082015250565b7f466565207472616e73666572206661696c656400000000000000000000000000600082015250565b7f4f6e6c79206d616e616765722063616e207769746864726177204e4654000000600082015250565b7f4552433732313a2061646472657373207a65726f206973206e6f74206120766160008201527f6c6964206f776e65720000000000000000000000000000000000000000000000602082015250565b7f546f6b656e207472616e73666572206661696c65640000000000000000000000600082015250565b7f4552433732313a206d696e7420746f20746865207a65726f2061646472657373600082015250565b7f4d6178696d756d20737570706c79206578636565646564000000000000000000600082015250565b7f496e636f727265637420457468657220616d6f756e7400000000000000000000600082015250565b7f4552433732313a20696e76616c696420746f6b656e2049440000000000000000600082015250565b7f496e76616c696420746f6b656e20494400000000000000000000000000000000600082015250565b7f4552433732313a20617070726f76616c20746f2063757272656e74206f776e6560008201527f7200000000000000000000000000000000000000000000000000000000000000602082015250565b7f4d616e61676572206973206e6f7420656d707479000000000000000000000000600082015250565b7f496e76616c69642063617465676f727900000000000000000000000000000000600082015250565b7f4552433732313a20617070726f76652063616c6c6572206973206e6f7420746f60008201527f6b656e206f776e6572206f7220617070726f76656420666f7220616c6c000000602082015250565b7f546869732061646472657373206973206e6f7420746865206275796572206f6660008201527f206e667400000000000000000000000000000000000000000000000000000000602082015250565b7f4e465420616c7265616479206465706f73697465640000000000000000000000600082015250565b7f43617465676f727920737570706c792065786365656465640000000000000000600082015250565b614b2e8161431c565b8114614b3957600080fd5b50565b614b458161432e565b8114614b5057600080fd5b50565b614b5c8161433a565b8114614b6757600080fd5b50565b614b7381614386565b8114614b7e57600080fd5b5056fea264697066735822122058d7c6883bb9cd8ee6682ad7ec92c3585f8bda4b779a9b7064136d0f4c4c42b364736f6c63430008010033",
  "linkReferences": {},
  "deployedLinkReferences": {}
}