{
  "_format": "hh-sol-artifact-1",
  "contractName": "ERC20Token",
  "sourceName": "contracts/ERC20Token.sol",
  "abi": [
    {
      "inputs": [
        {
          "internalType": "string",
          "name": "_name",
          "type": "string"
        },
        {
          "internalType": "string",
          "name": "_symbol",
          "type": "string"
        },
        {
          "internalType": "uint256",
          "name": "_initialSupply",
          "type": "uint256"
        }
      ],
      "stateMutability": "nonpayable",
      "type": "constructor"
    },
    {
      "anonymous": false,
      "inputs": [
        {
          "indexed": true,
          "internalType": "address",
          "name": "owner",
          "type": "address"
        },
        {
          "indexed": true,
          "internalType": "address",
          "name": "spender",
          "type": "address"
        },
        {
          "indexed": false,
          "internalType": "uint256",
          "name": "value",
          "type": "uint256"
        }
      ],
      "name": "Approval",
      "type": "event"
    },
    {
      "anonymous": false,
      "inputs": [
        {
          "indexed": true,
          "internalType": "address",
          "name": "from",
          "type": "address"
        },
        {
          "indexed": true,
          "internalType": "address",
          "name": "to",
          "type": "address"
        },
        {
          "indexed": false,
          "internalType": "uint256",
          "name": "value",
          "type": "uint256"
        }
      ],
      "name": "Transfer",
      "type": "event"
    },
    {
      "inputs": [
        {
          "internalType": "address",
          "name": "_owner",
          "type": "address"
        },
        {
          "internalType": "address",
          "name": "_spender",
          "type": "address"
        }
      ],
      "name": "allowance",
      "outputs": [
        {
          "internalType": "uint256",
          "name": "",
          "type": "uint256"
        }
      ],
      "stateMutability": "view",
      "type": "function"
    },
    {
      "inputs": [
        {
          "internalType": "address",
          "name": "_spender",
          "type": "address"
        },
        {
          "internalType": "uint256",
          "name": "_amount",
          "type": "uint256"
        }
      ],
      "name": "approve",
      "outputs": [
        {
          "internalType": "bool",
          "name": "",
          "type": "bool"
        }
      ],
      "stateMutability": "nonpayable",
      "type": "function"
    },
    {
      "inputs": [
        {
          "internalType": "address",
          "name": "_account",
          "type": "address"
        }
      ],
      "name": "balanceOf",
      "outputs": [
        {
          "internalType": "uint256",
          "name": "",
          "type": "uint256"
        }
      ],
      "stateMutability": "view",
      "type": "function"
    },
    {
      "inputs": [],
      "name": "getName",
      "outputs": [
        {
          "internalType": "string",
          "name": "",
          "type": "string"
        }
      ],
      "stateMutability": "view",
      "type": "function"
    },
    {
      "inputs": [],
      "name": "getSymbol",
      "outputs": [
        {
          "internalType": "string",
          "name": "",
          "type": "string"
        }
      ],
      "stateMutability": "view",
      "type": "function"
    },
    {
      "inputs": [],
      "name": "totalSupply",
      "outputs": [
        {
          "internalType": "uint256",
          "name": "",
          "type": "uint256"
        }
      ],
      "stateMutability": "view",
      "type": "function"
    },
    {
      "inputs": [
        {
          "internalType": "address",
          "name": "_recipient",
          "type": "address"
        },
        {
          "internalType": "uint256",
          "name": "_amount",
          "type": "uint256"
        }
      ],
      "name": "transfer",
      "outputs": [
        {
          "internalType": "bool",
          "name": "",
          "type": "bool"
        }
      ],
      "stateMutability": "nonpayable",
      "type": "function"
    },
    {
      "inputs": [
        {
          "internalType": "address",
          "name": "_sender",
          "type": "address"
        },
        {
          "internalType": "address",
          "name": "_recipient",
          "type": "address"
        },
        {
          "internalType": "uint256",
          "name": "_amount",
          "type": "uint256"
        }
      ],
      "name": "transferFrom",
      "outputs": [
        {
          "internalType": "bool",
          "name": "",
          "type": "bool"
        }
      ],
      "stateMutability": "nonpayable",
      "type": "function"
    }
  ],
  "bytecode": "0x60806040523480156200001157600080fd5b50604051620015b7380380620015b7833981810160405281019062000037919062000204565b82600090805190602001906200004f929190620000cb565b50816001908051906020019062000068929190620000cb565b50806002819055506005816200007f9190620002eb565b600360003373ffffffffffffffffffffffffffffffffffffffff1673ffffffffffffffffffffffffffffffffffffffff1681526020019081526020016000208190555050505062000487565b828054620000d99062000363565b90600052602060002090601f016020900481019282620000fd576000855562000149565b82601f106200011857805160ff191683800117855562000149565b8280016001018555821562000149579182015b82811115620001485782518255916020019190600101906200012b565b5b5090506200015891906200015c565b5090565b5b80821115620001775760008160009055506001016200015d565b5090565b6000620001926200018c84620002b5565b6200028c565b905082815260208101848484011115620001ab57600080fd5b620001b88482856200032d565b509392505050565b600082601f830112620001d257600080fd5b8151620001e48482602086016200017b565b91505092915050565b600081519050620001fe816200046d565b92915050565b6000806000606084860312156200021a57600080fd5b600084015167ffffffffffffffff8111156200023557600080fd5b6200024386828701620001c0565b935050602084015167ffffffffffffffff8111156200026157600080fd5b6200026f86828701620001c0565b92505060406200028286828701620001ed565b9150509250925092565b600062000298620002ab565b9050620002a6828262000399565b919050565b6000604051905090565b600067ffffffffffffffff821115620002d357620002d26200042d565b5b620002de826200045c565b9050602081019050919050565b6000620002f88262000323565b9150620003058362000323565b925082620003185762000317620003cf565b5b828204905092915050565b6000819050919050565b60005b838110156200034d57808201518184015260208101905062000330565b838111156200035d576000848401525b50505050565b600060028204905060018216806200037c57607f821691505b60208210811415620003935762000392620003fe565b5b50919050565b620003a4826200045c565b810181811067ffffffffffffffff82111715620003c657620003c56200042d565b5b80604052505050565b7f4e487b7100000000000000000000000000000000000000000000000000000000600052601260045260246000fd5b7f4e487b7100000000000000000000000000000000000000000000000000000000600052602260045260246000fd5b7f4e487b7100000000000000000000000000000000000000000000000000000000600052604160045260246000fd5b6000601f19601f8301169050919050565b620004788162000323565b81146200048457600080fd5b50565b61112080620004976000396000f3fe608060405234801561001057600080fd5b50600436106100885760003560e01c806323b872dd1161005b57806323b872dd1461011757806370a0823114610147578063a9059cbb14610177578063dd62ed3e146101a757610088565b8063095ea7b31461008d57806315070401146100bd57806317d7de7c146100db57806318160ddd146100f9575b600080fd5b6100a760048036038101906100a29190610bf3565b6101d7565b6040516100b49190610d35565b60405180910390f35b6100c5610338565b6040516100d29190610d50565b60405180910390f35b6100e36103ca565b6040516100f09190610d50565b60405180910390f35b61010161045c565b60405161010e9190610e12565b60405180910390f35b610131600480360381019061012c9190610ba4565b610466565b60405161013e9190610d35565b60405180910390f35b610161600480360381019061015c9190610b3f565b610837565b60405161016e9190610e12565b60405180910390f35b610191600480360381019061018c9190610bf3565b610880565b60405161019e9190610d35565b60405180910390f35b6101c160048036038101906101bc9190610b68565b610a8e565b6040516101ce9190610e12565b60405180910390f35b60008073ffffffffffffffffffffffffffffffffffffffff168373ffffffffffffffffffffffffffffffffffffffff161415610248576040517f08c379a000000000000000000000000000000000000000000000000000000000815260040161023f90610df2565b60405180910390fd5b81600460003373ffffffffffffffffffffffffffffffffffffffff1673ffffffffffffffffffffffffffffffffffffffff16815260200190815260200160002060008573ffffffffffffffffffffffffffffffffffffffff1673ffffffffffffffffffffffffffffffffffffffff168152602001908152602001600020819055508273ffffffffffffffffffffffffffffffffffffffff163373ffffffffffffffffffffffffffffffffffffffff167f8c5be1e5ebec7d5bd14f71427d1e84f3dd0314c0f7b2291e5b200ac8c7c3b925846040516103269190610e12565b60405180910390a36001905092915050565b60606001805461034790610f4e565b80601f016020809104026020016040519081016040528092919081815260200182805461037390610f4e565b80156103c05780601f10610395576101008083540402835291602001916103c0565b820191906000526020600020905b8154815290600101906020018083116103a357829003601f168201915b5050505050905090565b6060600080546103d990610f4e565b80601f016020809104026020016040519081016040528092919081815260200182805461040590610f4e565b80156104525780601f1061042757610100808354040283529160200191610452565b820191906000526020600020905b81548152906001019060200180831161043557829003601f168201915b5050505050905090565b6000600254905090565b60008073ffffffffffffffffffffffffffffffffffffffff168473ffffffffffffffffffffffffffffffffffffffff1614156104d7576040517f08c379a00000000000000000000000000000000000000000000000000000000081526004016104ce90610db2565b60405180910390fd5b600073ffffffffffffffffffffffffffffffffffffffff168373ffffffffffffffffffffffffffffffffffffffff161415610547576040517f08c379a000000000000000000000000000000000000000000000000000000000815260040161053e90610dd2565b60405180910390fd5b600360008573ffffffffffffffffffffffffffffffffffffffff1673ffffffffffffffffffffffffffffffffffffffff168152602001908152602001600020548211156105c9576040517f08c379a00000000000000000000000000000000000000000000000000000000081526004016105c090610d92565b60405180910390fd5b600460008573ffffffffffffffffffffffffffffffffffffffff1673ffffffffffffffffffffffffffffffffffffffff16815260200190815260200160002060003373ffffffffffffffffffffffffffffffffffffffff1673ffffffffffffffffffffffffffffffffffffffff16815260200190815260200160002054821115610688576040517f08c379a000000000000000000000000000000000000000000000000000000000815260040161067f90610d72565b60405180910390fd5b81600360008673ffffffffffffffffffffffffffffffffffffffff1673ffffffffffffffffffffffffffffffffffffffff16815260200190815260200160002060008282546106d79190610e9f565b9250508190555081600360008573ffffffffffffffffffffffffffffffffffffffff1673ffffffffffffffffffffffffffffffffffffffff168152602001908152602001600020600082825461072d9190610e49565b9250508190555081600460008673ffffffffffffffffffffffffffffffffffffffff1673ffffffffffffffffffffffffffffffffffffffff16815260200190815260200160002060003373ffffffffffffffffffffffffffffffffffffffff1673ffffffffffffffffffffffffffffffffffffffff16815260200190815260200160002060008282546107c09190610e9f565b925050819055508273ffffffffffffffffffffffffffffffffffffffff168473ffffffffffffffffffffffffffffffffffffffff167fddf252ad1be2c89b69c2b068fc378daa952ba7f163c4a11628f55a4df523b3ef846040516108249190610e12565b60405180910390a3600190509392505050565b6000600360008373ffffffffffffffffffffffffffffffffffffffff1673ffffffffffffffffffffffffffffffffffffffff168152602001908152602001600020549050919050565b60008073ffffffffffffffffffffffffffffffffffffffff168373ffffffffffffffffffffffffffffffffffffffff1614156108f1576040517f08c379a00000000000000000000000000000000000000000000000000000000081526004016108e890610dd2565b60405180910390fd5b600360003373ffffffffffffffffffffffffffffffffffffffff1673ffffffffffffffffffffffffffffffffffffffff16815260200190815260200160002054821115610973576040517f08c379a000000000000000000000000000000000000000000000000000000000815260040161096a90610d92565b60405180910390fd5b81600360003373ffffffffffffffffffffffffffffffffffffffff1673ffffffffffffffffffffffffffffffffffffffff16815260200190815260200160002060008282546109c29190610e9f565b9250508190555081600360008573ffffffffffffffffffffffffffffffffffffffff1673ffffffffffffffffffffffffffffffffffffffff1681526020019081526020016000206000828254610a189190610e49565b925050819055508273ffffffffffffffffffffffffffffffffffffffff163373ffffffffffffffffffffffffffffffffffffffff167fddf252ad1be2c89b69c2b068fc378daa952ba7f163c4a11628f55a4df523b3ef84604051610a7c9190610e12565b60405180910390a36001905092915050565b6000600460008473ffffffffffffffffffffffffffffffffffffffff1673ffffffffffffffffffffffffffffffffffffffff16815260200190815260200160002060008373ffffffffffffffffffffffffffffffffffffffff1673ffffffffffffffffffffffffffffffffffffffff16815260200190815260200160002054905092915050565b600081359050610b24816110bc565b92915050565b600081359050610b39816110d3565b92915050565b600060208284031215610b5157600080fd5b6000610b5f84828501610b15565b91505092915050565b60008060408385031215610b7b57600080fd5b6000610b8985828601610b15565b9250506020610b9a85828601610b15565b9150509250929050565b600080600060608486031215610bb957600080fd5b6000610bc786828701610b15565b9350506020610bd886828701610b15565b9250506040610be986828701610b2a565b9150509250925092565b60008060408385031215610c0657600080fd5b6000610c1485828601610b15565b9250506020610c2585828601610b2a565b9150509250929050565b610c3881610ee5565b82525050565b6000610c4982610e2d565b610c538185610e38565b9350610c63818560208601610f1b565b610c6c81610fde565b840191505092915050565b6000610c84601683610e38565b9150610c8f82610fef565b602082019050919050565b6000610ca7601483610e38565b9150610cb282611018565b602082019050919050565b6000610cca600e83610e38565b9150610cd582611041565b602082019050919050565b6000610ced601183610e38565b9150610cf88261106a565b602082019050919050565b6000610d10600f83610e38565b9150610d1b82611093565b602082019050919050565b610d2f81610f11565b82525050565b6000602082019050610d4a6000830184610c2f565b92915050565b60006020820190508181036000830152610d6a8184610c3e565b905092915050565b60006020820190508181036000830152610d8b81610c77565b9050919050565b60006020820190508181036000830152610dab81610c9a565b9050919050565b60006020820190508181036000830152610dcb81610cbd565b9050919050565b60006020820190508181036000830152610deb81610ce0565b9050919050565b60006020820190508181036000830152610e0b81610d03565b9050919050565b6000602082019050610e276000830184610d26565b92915050565b600081519050919050565b600082825260208201905092915050565b6000610e5482610f11565b9150610e5f83610f11565b9250827fffffffffffffffffffffffffffffffffffffffffffffffffffffffffffffffff03821115610e9457610e93610f80565b5b828201905092915050565b6000610eaa82610f11565b9150610eb583610f11565b925082821015610ec857610ec7610f80565b5b828203905092915050565b6000610ede82610ef1565b9050919050565b60008115159050919050565b600073ffffffffffffffffffffffffffffffffffffffff82169050919050565b6000819050919050565b60005b83811015610f39578082015181840152602081019050610f1e565b83811115610f48576000848401525b50505050565b60006002820490506001821680610f6657607f821691505b60208210811415610f7a57610f79610faf565b5b50919050565b7f4e487b7100000000000000000000000000000000000000000000000000000000600052601160045260246000fd5b7f4e487b7100000000000000000000000000000000000000000000000000000000600052602260045260246000fd5b6000601f19601f8301169050919050565b7f496e73756666696369656e7420616c6c6f77616e636500000000000000000000600082015250565b7f496e73756666696369656e742062616c616e6365000000000000000000000000600082015250565b7f496e76616c69642073656e646572000000000000000000000000000000000000600082015250565b7f496e76616c696420726563697069656e74000000000000000000000000000000600082015250565b7f496e76616c6964207370656e6465720000000000000000000000000000000000600082015250565b6110c581610ed3565b81146110d057600080fd5b50565b6110dc81610f11565b81146110e757600080fd5b5056fea2646970667358221220872a1f762a9a84bb88dea193cfacb3218aa79c93dafffae7a930c4d32b33fd5364736f6c63430008010033",
  "linkReferences": {},
  "deployedLinkReferences": {}
}